{
  "_format": "hh-sol-artifact-1",
  "contractName": "UniversityDegree",
  "sourceName": "contracts/UniversityDegree.sol",
  "abi": [
    {
      "inputs": [],
      "stateMutability": "nonpayable",
      "type": "constructor"
    },
    {
      "anonymous": false,
      "inputs": [
        {
          "indexed": true,
          "internalType": "address",
          "name": "owner",
          "type": "address"
        },
        {
          "indexed": true,
          "internalType": "address",
          "name": "approved",
          "type": "address"
        },
        {
          "indexed": true,
          "internalType": "uint256",
          "name": "tokenId",
          "type": "uint256"
        }
      ],
      "name": "Approval",
      "type": "event"
    },
    {
      "anonymous": false,
      "inputs": [
        {
          "indexed": true,
          "internalType": "address",
          "name": "owner",
          "type": "address"
        },
        {
          "indexed": true,
          "internalType": "address",
          "name": "operator",
          "type": "address"
        },
        {
          "indexed": false,
          "internalType": "bool",
          "name": "approved",
          "type": "bool"
        }
      ],
      "name": "ApprovalForAll",
      "type": "event"
    },
    {
      "anonymous": false,
      "inputs": [
        {
          "indexed": true,
          "internalType": "address",
          "name": "from",
          "type": "address"
        },
        {
          "indexed": true,
          "internalType": "address",
          "name": "to",
          "type": "address"
        },
        {
          "indexed": true,
          "internalType": "uint256",
          "name": "tokenId",
          "type": "uint256"
        }
      ],
      "name": "Transfer",
      "type": "event"
    },
    {
      "inputs": [
        {
          "internalType": "address",
          "name": "to",
          "type": "address"
        },
        {
          "internalType": "uint256",
          "name": "tokenId",
          "type": "uint256"
        }
      ],
      "name": "approve",
      "outputs": [],
      "stateMutability": "nonpayable",
      "type": "function"
    },
    {
      "inputs": [
        {
          "internalType": "address",
          "name": "owner",
          "type": "address"
        }
      ],
      "name": "balanceOf",
      "outputs": [
        {
          "internalType": "uint256",
          "name": "",
          "type": "uint256"
        }
      ],
      "stateMutability": "view",
      "type": "function"
    },
    {
      "inputs": [
        {
          "internalType": "address",
          "name": "person",
          "type": "address"
        }
      ],
      "name": "checkDegreeOfPerson",
      "outputs": [
        {
          "internalType": "string",
          "name": "",
          "type": "string"
        }
      ],
      "stateMutability": "view",
      "type": "function"
    },
    {
      "inputs": [
        {
          "internalType": "string",
          "name": "tokenURI",
          "type": "string"
        }
      ],
      "name": "claimDegree",
      "outputs": [
        {
          "internalType": "uint256",
          "name": "",
          "type": "uint256"
        }
      ],
      "stateMutability": "nonpayable",
      "type": "function"
    },
    {
      "inputs": [
        {
          "internalType": "uint256",
          "name": "tokenId",
          "type": "uint256"
        }
      ],
      "name": "getApproved",
      "outputs": [
        {
          "internalType": "address",
          "name": "",
          "type": "address"
        }
      ],
      "stateMutability": "view",
      "type": "function"
    },
    {
      "inputs": [
        {
          "internalType": "address",
          "name": "owner",
          "type": "address"
        },
        {
          "internalType": "address",
          "name": "operator",
          "type": "address"
        }
      ],
      "name": "isApprovedForAll",
      "outputs": [
        {
          "internalType": "bool",
          "name": "",
          "type": "bool"
        }
      ],
      "stateMutability": "view",
      "type": "function"
    },
    {
      "inputs": [
        {
          "internalType": "address",
          "name": "to",
          "type": "address"
        }
      ],
      "name": "issueDegree",
      "outputs": [],
      "stateMutability": "nonpayable",
      "type": "function"
    },
    {
      "inputs": [
        {
          "internalType": "address",
          "name": "",
          "type": "address"
        }
      ],
      "name": "issuedDegrees",
      "outputs": [
        {
          "internalType": "bool",
          "name": "",
          "type": "bool"
        }
      ],
      "stateMutability": "view",
      "type": "function"
    },
    {
      "inputs": [],
      "name": "name",
      "outputs": [
        {
          "internalType": "string",
          "name": "",
          "type": "string"
        }
      ],
      "stateMutability": "view",
      "type": "function"
    },
    {
      "inputs": [
        {
          "internalType": "uint256",
          "name": "tokenId",
          "type": "uint256"
        }
      ],
      "name": "ownerOf",
      "outputs": [
        {
          "internalType": "address",
          "name": "",
          "type": "address"
        }
      ],
      "stateMutability": "view",
      "type": "function"
    },
    {
      "inputs": [
        {
          "internalType": "address",
          "name": "",
          "type": "address"
        }
      ],
      "name": "personToDegree",
      "outputs": [
        {
          "internalType": "string",
          "name": "",
          "type": "string"
        }
      ],
      "stateMutability": "view",
      "type": "function"
    },
    {
      "inputs": [
        {
          "internalType": "address",
          "name": "operator",
          "type": "address"
        },
        {
          "internalType": "bool",
          "name": "approved",
          "type": "bool"
        }
      ],
      "name": "setApprovalForAll",
      "outputs": [],
      "stateMutability": "nonpayable",
      "type": "function"
    },
    {
      "inputs": [
        {
          "internalType": "bytes4",
          "name": "interfaceId",
          "type": "bytes4"
        }
      ],
      "name": "supportsInterface",
      "outputs": [
        {
          "internalType": "bool",
          "name": "",
          "type": "bool"
        }
      ],
      "stateMutability": "view",
      "type": "function"
    },
    {
      "inputs": [],
      "name": "symbol",
      "outputs": [
        {
          "internalType": "string",
          "name": "",
          "type": "string"
        }
      ],
      "stateMutability": "view",
      "type": "function"
    },
    {
      "inputs": [
        {
          "internalType": "uint256",
          "name": "tokenId",
          "type": "uint256"
        }
      ],
      "name": "tokenURI",
      "outputs": [
        {
          "internalType": "string",
          "name": "",
          "type": "string"
        }
      ],
      "stateMutability": "view",
      "type": "function"
    },
    {
      "inputs": [
        {
          "internalType": "address",
          "name": "from",
          "type": "address"
        },
        {
          "internalType": "address",
          "name": "to",
          "type": "address"
        },
        {
          "internalType": "uint256",
          "name": "tokenId",
          "type": "uint256"
        }
      ],
      "name": "transferFrom",
      "outputs": [],
      "stateMutability": "nonpayable",
      "type": "function"
    }
  ],
  "bytecode": "0x60806040523480156200001157600080fd5b50604080518082018252601081526f556e697665727369747944656772656560801b6020808301918252835180850190945260048452634e48434560e01b908401528151919291620000669160009162000097565b5080516200007c90600190602084019062000097565b5050600780546001600160a01b03191633179055506200017a565b828054620000a5906200013d565b90600052602060002090601f016020900481019282620000c9576000855562000114565b82601f10620000e457805160ff191683800117855562000114565b8280016001018555821562000114579182015b8281111562000114578251825591602001919060010190620000f7565b506200012292915062000126565b5090565b5b8082111562000122576000815560010162000127565b600181811c908216806200015257607f821691505b602082108114156200017457634e487b7160e01b600052602260045260246000fd5b50919050565b611638806200018a6000396000f3fe608060405234801561001057600080fd5b50600436106101005760003560e01c80636352211e11610097578063b5d473da11610066578063b5d473da1461023c578063c87b56dd1461024f578063e985e9c514610262578063f5caa7631461029e57600080fd5b80636352211e146101fb57806370a082311461020e57806395d89b4114610221578063a22cb4651461022957600080fd5b806323b872dd116100d357806323b872dd146101825780632db2f4781461019557806337f902f0146101b657806349d89ea4146101c957600080fd5b806301ffc9a71461010557806306fdde031461012d578063081812fc14610142578063095ea7b31461016d575b600080fd5b61011861011336600461126b565b6102c1565b60405190151581526020015b60405180910390f35b610135610313565b60405161012491906112c5565b6101556101503660046112f8565b6103a5565b6040516001600160a01b039091168152602001610124565b61018061017b36600461132d565b610432565b005b610180610190366004611357565b610548565b6101a86101a33660046113a9565b6105c3565b604051908152602001610124565b6101356101c436600461145a565b610686565b6101806101d736600461145a565b6001600160a01b03166000908152600a60205260409020805460ff19166001179055565b6101556102093660046112f8565b610720565b6101a861021c36600461145a565b610797565b61013561081e565b610180610237366004611475565b61082d565b61013561024a36600461145a565b61083c565b61013561025d3660046112f8565b6108e8565b6101186102703660046114b1565b6001600160a01b03918216600090815260056020908152604080832093909416825291909152205460ff1690565b6101186102ac36600461145a565b600a6020526000908152604090205460ff1681565b60006001600160e01b03198216637aa5391d60e01b14806102f257506001600160e01b03198216635b5e139f60e01b145b8061030d57506301ffc9a760e01b6001600160e01b03198316145b92915050565b606060008054610322906114e4565b80601f016020809104026020016040519081016040528092919081815260200182805461034e906114e4565b801561039b5780601f106103705761010080835404028352916020019161039b565b820191906000526020600020905b81548152906001019060200180831161037e57829003601f168201915b5050505050905090565b60006103b082610a5f565b6104165760405162461bcd60e51b815260206004820152602c60248201527f4552433732313a20617070726f76656420717565727920666f72206e6f6e657860448201526b34b9ba32b73a103a37b5b2b760a11b60648201526084015b60405180910390fd5b506000908152600460205260409020546001600160a01b031690565b600061043d82610720565b9050806001600160a01b0316836001600160a01b031614156104ab5760405162461bcd60e51b815260206004820152602160248201527f4552433732313a20617070726f76616c20746f2063757272656e74206f776e656044820152603960f91b606482015260840161040d565b336001600160a01b03821614806104c757506104c78133610270565b6105395760405162461bcd60e51b815260206004820152603860248201527f4552433732313a20617070726f76652063616c6c6572206973206e6f74206f7760448201527f6e6572206e6f7220617070726f76656420666f7220616c6c0000000000000000606482015260840161040d565b6105438383610a7c565b505050565b6105523382610aea565b6105b85760405162461bcd60e51b815260206004820152603160248201527f4552433732313a207472616e736665722063616c6c6572206973206e6f74206f6044820152701ddb995c881b9bdc88185c1c1c9bdd9959607a1b606482015260840161040d565b610543838383610bd3565b336000908152600a602052604081205460ff166106195760405162461bcd60e51b8152602060048201526014602482015273111959dc9959481a5cc81b9bdd081a5cdcdd595960621b604482015260640161040d565b610627600880546001019055565b600061063260085490565b905061063e3382610d6f565b6106488184610ea2565b3360009081526009602090815260409091208451610668928601906111d2565b50336000908152600a60205260409020805460ff1916905592915050565b6009602052600090815260409020805461069f906114e4565b80601f01602080910402602001604051908101604052809291908181526020018280546106cb906114e4565b80156107185780601f106106ed57610100808354040283529160200191610718565b820191906000526020600020905b8154815290600101906020018083116106fb57829003601f168201915b505050505081565b6000818152600260205260408120546001600160a01b03168061030d5760405162461bcd60e51b815260206004820152602960248201527f4552433732313a206f776e657220717565727920666f72206e6f6e657869737460448201526832b73a103a37b5b2b760b91b606482015260840161040d565b60006001600160a01b0382166108025760405162461bcd60e51b815260206004820152602a60248201527f4552433732313a2062616c616e636520717565727920666f7220746865207a65604482015269726f206164647265737360b01b606482015260840161040d565b506001600160a01b031660009081526003602052604090205490565b606060018054610322906114e4565b610838338383610f2d565b5050565b6001600160a01b0381166000908152600960205260409020805460609190610863906114e4565b80601f016020809104026020016040519081016040528092919081815260200182805461088f906114e4565b80156108dc5780601f106108b1576101008083540402835291602001916108dc565b820191906000526020600020905b8154815290600101906020018083116108bf57829003601f168201915b50505050509050919050565b60606108f382610a5f565b6109595760405162461bcd60e51b815260206004820152603160248201527f45524337323155524953746f726167653a2055524920717565727920666f72206044820152703737b732bc34b9ba32b73a103a37b5b2b760791b606482015260840161040d565b60008281526006602052604081208054610972906114e4565b80601f016020809104026020016040519081016040528092919081815260200182805461099e906114e4565b80156109eb5780601f106109c0576101008083540402835291602001916109eb565b820191906000526020600020905b8154815290600101906020018083116109ce57829003601f168201915b505050505090506000610a0960408051602081019091526000815290565b9050805160001415610a1c575092915050565b815115610a4e578082604051602001610a3692919061151f565b60405160208183030381529060405292505050919050565b610a5784610ffc565b949350505050565b6000908152600260205260409020546001600160a01b0316151590565b600081815260046020526040902080546001600160a01b0319166001600160a01b0384169081179091558190610ab182610720565b6001600160a01b03167f8c5be1e5ebec7d5bd14f71427d1e84f3dd0314c0f7b2291e5b200ac8c7c3b92560405160405180910390a45050565b6000610af582610a5f565b610b565760405162461bcd60e51b815260206004820152602c60248201527f4552433732313a206f70657261746f7220717565727920666f72206e6f6e657860448201526b34b9ba32b73a103a37b5b2b760a11b606482015260840161040d565b6000610b6183610720565b9050806001600160a01b0316846001600160a01b03161480610ba857506001600160a01b0380821660009081526005602090815260408083209388168352929052205460ff165b80610a575750836001600160a01b0316610bc1846103a5565b6001600160a01b031614949350505050565b826001600160a01b0316610be682610720565b6001600160a01b031614610c4a5760405162461bcd60e51b815260206004820152602560248201527f4552433732313a207472616e736665722066726f6d20696e636f72726563742060448201526437bbb732b960d91b606482015260840161040d565b6001600160a01b038216610cac5760405162461bcd60e51b8152602060048201526024808201527f4552433732313a207472616e7366657220746f20746865207a65726f206164646044820152637265737360e01b606482015260840161040d565b610cb7600082610a7c565b6001600160a01b0383166000908152600360205260408120805460019290610ce0908490611564565b90915550506001600160a01b0382166000908152600360205260408120805460019290610d0e90849061157b565b909155505060008181526002602052604080822080546001600160a01b0319166001600160a01b0386811691821790925591518493918716917fddf252ad1be2c89b69c2b068fc378daa952ba7f163c4a11628f55a4df523b3ef91a4505050565b6001600160a01b038216610dc55760405162461bcd60e51b815260206004820181905260248201527f4552433732313a206d696e7420746f20746865207a65726f2061646472657373604482015260640161040d565b610dce81610a5f565b15610e1b5760405162461bcd60e51b815260206004820152601c60248201527f4552433732313a20746f6b656e20616c7265616479206d696e74656400000000604482015260640161040d565b6001600160a01b0382166000908152600360205260408120805460019290610e4490849061157b565b909155505060008181526002602052604080822080546001600160a01b0319166001600160a01b03861690811790915590518392907fddf252ad1be2c89b69c2b068fc378daa952ba7f163c4a11628f55a4df523b3ef908290a45050565b610eab82610a5f565b610f0e5760405162461bcd60e51b815260206004820152602e60248201527f45524337323155524953746f726167653a2055524920736574206f66206e6f6e60448201526d32bc34b9ba32b73a103a37b5b2b760911b606482015260840161040d565b60008281526006602090815260409091208251610543928401906111d2565b816001600160a01b0316836001600160a01b03161415610f8f5760405162461bcd60e51b815260206004820152601960248201527f4552433732313a20617070726f766520746f2063616c6c657200000000000000604482015260640161040d565b6001600160a01b03838116600081815260056020908152604080832094871680845294825291829020805460ff191686151590811790915591519182527f17307eab39ab6107e8899845ad3d59bd9653f200f220920489ca2b5937696c31910160405180910390a3505050565b606061100782610a5f565b61106b5760405162461bcd60e51b815260206004820152602f60248201527f4552433732314d657461646174613a2055524920717565727920666f72206e6f60448201526e3732bc34b9ba32b73a103a37b5b2b760891b606482015260840161040d565b600061108260408051602081019091526000815290565b905060008151116110a257604051806020016040528060008152506110cd565b806110ac846110d4565b6040516020016110bd92919061151f565b6040516020818303038152906040525b9392505050565b6060816110f85750506040805180820190915260018152600360fc1b602082015290565b8160005b8115611122578061110c81611593565b915061111b9050600a836115c4565b91506110fc565b60008167ffffffffffffffff81111561113d5761113d611393565b6040519080825280601f01601f191660200182016040528015611167576020820181803683370190505b5090505b8415610a575761117c600183611564565b9150611189600a866115d8565b61119490603061157b565b60f81b8183815181106111a9576111a96115ec565b60200101906001600160f81b031916908160001a9053506111cb600a866115c4565b945061116b565b8280546111de906114e4565b90600052602060002090601f0160209004810192826112005760008555611246565b82601f1061121957805160ff1916838001178555611246565b82800160010185558215611246579182015b8281111561124657825182559160200191906001019061122b565b50611252929150611256565b5090565b5b808211156112525760008155600101611257565b60006020828403121561127d57600080fd5b81356001600160e01b0319811681146110cd57600080fd5b60005b838110156112b0578181015183820152602001611298565b838111156112bf576000848401525b50505050565b60208152600082518060208401526112e4816040850160208701611295565b601f01601f19169190910160400192915050565b60006020828403121561130a57600080fd5b5035919050565b80356001600160a01b038116811461132857600080fd5b919050565b6000806040838503121561134057600080fd5b61134983611311565b946020939093013593505050565b60008060006060848603121561136c57600080fd5b61137584611311565b925061138360208501611311565b9150604084013590509250925092565b634e487b7160e01b600052604160045260246000fd5b6000602082840312156113bb57600080fd5b813567ffffffffffffffff808211156113d357600080fd5b818401915084601f8301126113e757600080fd5b8135818111156113f9576113f9611393565b604051601f8201601f19908116603f0116810190838211818310171561142157611421611393565b8160405282815287602084870101111561143a57600080fd5b826020860160208301376000928101602001929092525095945050505050565b60006020828403121561146c57600080fd5b6110cd82611311565b6000806040838503121561148857600080fd5b61149183611311565b9150602083013580151581146114a657600080fd5b809150509250929050565b600080604083850312156114c457600080fd5b6114cd83611311565b91506114db60208401611311565b90509250929050565b600181811c908216806114f857607f821691505b6020821081141561151957634e487b7160e01b600052602260045260246000fd5b50919050565b60008351611531818460208801611295565b835190830190611545818360208801611295565b01949350505050565b634e487b7160e01b600052601160045260246000fd5b6000828210156115765761157661154e565b500390565b6000821982111561158e5761158e61154e565b500190565b60006000198214156115a7576115a761154e565b5060010190565b634e487b7160e01b600052601260045260246000fd5b6000826115d3576115d36115ae565b500490565b6000826115e7576115e76115ae565b500690565b634e487b7160e01b600052603260045260246000fdfea2646970667358221220e5aba604621b53308bba4f26be11911d3f258ec3463be7f97495e27da9918d6c64736f6c63430008090033",
  "linkReferences": {},
  "deployedLinkReferences": {}
}