{
    "_format": "hh-sol-artifact-1",
    "contractName": "UniversityDegree",
    "sourceName": "contracts/UniversityDegree.sol",
    "abi": [
        {
            "inputs": [],
            "stateMutability": "nonpayable",
            "type": "constructor"
        },
        {
            "anonymous": false,
            "inputs": [
                {
                    "indexed": true,
                    "internalType": "address",
                    "name": "owner",
                    "type": "address"
                },
                {
                    "indexed": true,
                    "internalType": "address",
                    "name": "approved",
                    "type": "address"
                },
                {
                    "indexed": true,
                    "internalType": "uint256",
                    "name": "tokenId",
                    "type": "uint256"
                }
            ],
            "name": "Approval",
            "type": "event"
        },
        {
            "anonymous": false,
            "inputs": [
                {
                    "indexed": true,
                    "internalType": "address",
                    "name": "owner",
                    "type": "address"
                },
                {
                    "indexed": true,
                    "internalType": "address",
                    "name": "operator",
                    "type": "address"
                },
                {
                    "indexed": false,
                    "internalType": "bool",
                    "name": "approved",
                    "type": "bool"
                }
            ],
            "name": "ApprovalForAll",
            "type": "event"
        },
        {
            "anonymous": false,
            "inputs": [
                {
                    "indexed": true,
                    "internalType": "address",
                    "name": "from",
                    "type": "address"
                },
                {
                    "indexed": true,
                    "internalType": "address",
                    "name": "to",
                    "type": "address"
                },
                {
                    "indexed": true,
                    "internalType": "uint256",
                    "name": "tokenId",
                    "type": "uint256"
                }
            ],
            "name": "Transfer",
            "type": "event"
        },
        {
            "inputs": [
                {
                    "internalType": "address",
                    "name": "to",
                    "type": "address"
                },
                {
                    "internalType": "uint256",
                    "name": "tokenId",
                    "type": "uint256"
                }
            ],
            "name": "approve",
            "outputs": [],
            "stateMutability": "nonpayable",
            "type": "function"
        },
        {
            "inputs": [
                {
                    "internalType": "address",
                    "name": "owner",
                    "type": "address"
                }
            ],
            "name": "balanceOf",
            "outputs": [
                {
                    "internalType": "uint256",
                    "name": "",
                    "type": "uint256"
                }
            ],
            "stateMutability": "view",
            "type": "function"
        },
        {
            "inputs": [
                {
                    "internalType": "address",
                    "name": "person",
                    "type": "address"
                }
            ],
            "name": "checkDegreeOfPerson",
            "outputs": [
                {
                    "internalType": "string",
                    "name": "",
                    "type": "string"
                }
            ],
            "stateMutability": "view",
            "type": "function"
        },
        {
            "inputs": [
                {
                    "internalType": "string",
                    "name": "tokenURI",
                    "type": "string"
                }
            ],
            "name": "claimDegree",
            "outputs": [
                {
                    "internalType": "uint256",
                    "name": "",
                    "type": "uint256"
                }
            ],
            "stateMutability": "nonpayable",
            "type": "function"
        },
        {
            "inputs": [
                {
                    "internalType": "uint256",
                    "name": "tokenId",
                    "type": "uint256"
                }
            ],
            "name": "getApproved",
            "outputs": [
                {
                    "internalType": "address",
                    "name": "",
                    "type": "address"
                }
            ],
            "stateMutability": "view",
            "type": "function"
        },
        {
            "inputs": [
                {
                    "internalType": "address",
                    "name": "owner",
                    "type": "address"
                },
                {
                    "internalType": "address",
                    "name": "operator",
                    "type": "address"
                }
            ],
            "name": "isApprovedForAll",
            "outputs": [
                {
                    "internalType": "bool",
                    "name": "",
                    "type": "bool"
                }
            ],
            "stateMutability": "view",
            "type": "function"
        },
        {
            "inputs": [
                {
                    "internalType": "address",
                    "name": "to",
                    "type": "address"
                }
            ],
            "name": "issueDegree",
            "outputs": [],
            "stateMutability": "nonpayable",
            "type": "function"
        },
        {
            "inputs": [
                {
                    "internalType": "address",
                    "name": "",
                    "type": "address"
                }
            ],
            "name": "issuedDegrees",
            "outputs": [
                {
                    "internalType": "bool",
                    "name": "",
                    "type": "bool"
                }
            ],
            "stateMutability": "view",
            "type": "function"
        },
        {
            "inputs": [],
            "name": "name",
            "outputs": [
                {
                    "internalType": "string",
                    "name": "",
                    "type": "string"
                }
            ],
            "stateMutability": "view",
            "type": "function"
        },
        {
            "inputs": [
                {
                    "internalType": "uint256",
                    "name": "tokenId",
                    "type": "uint256"
                }
            ],
            "name": "ownerOf",
            "outputs": [
                {
                    "internalType": "address",
                    "name": "",
                    "type": "address"
                }
            ],
            "stateMutability": "view",
            "type": "function"
        },
        {
            "inputs": [
                {
                    "internalType": "address",
                    "name": "",
                    "type": "address"
                }
            ],
            "name": "personToDegree",
            "outputs": [
                {
                    "internalType": "string",
                    "name": "",
                    "type": "string"
                }
            ],
            "stateMutability": "view",
            "type": "function"
        },
        {
            "inputs": [
                {
                    "internalType": "address",
                    "name": "operator",
                    "type": "address"
                },
                {
                    "internalType": "bool",
                    "name": "approved",
                    "type": "bool"
                }
            ],
            "name": "setApprovalForAll",
            "outputs": [],
            "stateMutability": "nonpayable",
            "type": "function"
        },
        {
            "inputs": [
                {
                    "internalType": "bytes4",
                    "name": "interfaceId",
                    "type": "bytes4"
                }
            ],
            "name": "supportsInterface",
            "outputs": [
                {
                    "internalType": "bool",
                    "name": "",
                    "type": "bool"
                }
            ],
            "stateMutability": "view",
            "type": "function"
        },
        {
            "inputs": [],
            "name": "symbol",
            "outputs": [
                {
                    "internalType": "string",
                    "name": "",
                    "type": "string"
                }
            ],
            "stateMutability": "view",
            "type": "function"
        },
        {
            "inputs": [
                {
                    "internalType": "uint256",
                    "name": "tokenId",
                    "type": "uint256"
                }
            ],
            "name": "tokenURI",
            "outputs": [
                {
                    "internalType": "string",
                    "name": "",
                    "type": "string"
                }
            ],
            "stateMutability": "view",
            "type": "function"
        },
        {
            "inputs": [
                {
                    "internalType": "address",
                    "name": "from",
                    "type": "address"
                },
                {
                    "internalType": "address",
                    "name": "to",
                    "type": "address"
                },
                {
                    "internalType": "uint256",
                    "name": "tokenId",
                    "type": "uint256"
                }
            ],
            "name": "transferFrom",
            "outputs": [],
            "stateMutability": "nonpayable",
            "type": "function"
        }
    ],
    "bytecode": "0x60806040523480156200001157600080fd5b506040518060400160405280600781526020016614dbdb5953919560ca1b8152506040518060400160405280600781526020016610dbdbdb13919560ca1b81525081600090805190602001906200006a9291906200009b565b508051620000809060019060208401906200009b565b5050600780546001600160a01b03191633179055506200017e565b828054620000a99062000141565b90600052602060002090601f016020900481019282620000cd576000855562000118565b82601f10620000e857805160ff191683800117855562000118565b8280016001018555821562000118579182015b8281111562000118578251825591602001919060010190620000fb565b50620001269291506200012a565b5090565b5b808211156200012657600081556001016200012b565b600181811c908216806200015657607f821691505b602082108114156200017857634e487b7160e01b600052602260045260246000fd5b50919050565b611654806200018e6000396000f3fe608060405234801561001057600080fd5b50600436106101005760003560e01c80636352211e11610097578063b5d473da11610066578063b5d473da1461021d578063c87b56dd14610230578063e985e9c514610243578063f5caa7631461027f57600080fd5b80636352211e146101dc57806370a08231146101ef57806395d89b4114610202578063a22cb4651461020a57600080fd5b806323b872dd116100d357806323b872dd146101825780632db2f4781461019557806337f902f0146101b657806349d89ea4146101c957600080fd5b806301ffc9a71461010557806306fdde031461012d578063081812fc14610142578063095ea7b31461016d575b600080fd5b610118610113366004611287565b6102a2565b60405190151581526020015b60405180910390f35b6101356102f4565b60405161012491906112e1565b610155610150366004611314565b610386565b6040516001600160a01b039091168152602001610124565b61018061017b366004611349565b610413565b005b610180610190366004611373565b610529565b6101a86101a33660046113c5565b6105a4565b604051908152602001610124565b6101356101c4366004611476565b610667565b6101806101d7366004611476565b610701565b6101556101ea366004611314565b61073c565b6101a86101fd366004611476565b6107b3565b61013561083a565b610180610218366004611491565b610849565b61013561022b366004611476565b610858565b61013561023e366004611314565b610904565b6101186102513660046114cd565b6001600160a01b03918216600090815260056020908152604080832093909416825291909152205460ff1690565b61011861028d366004611476565b600a6020526000908152604090205460ff1681565b60006001600160e01b03198216637aa5391d60e01b14806102d357506001600160e01b03198216635b5e139f60e01b145b806102ee57506301ffc9a760e01b6001600160e01b03198316145b92915050565b60606000805461030390611500565b80601f016020809104026020016040519081016040528092919081815260200182805461032f90611500565b801561037c5780601f106103515761010080835404028352916020019161037c565b820191906000526020600020905b81548152906001019060200180831161035f57829003601f168201915b5050505050905090565b600061039182610a7b565b6103f75760405162461bcd60e51b815260206004820152602c60248201527f4552433732313a20617070726f76656420717565727920666f72206e6f6e657860448201526b34b9ba32b73a103a37b5b2b760a11b60648201526084015b60405180910390fd5b506000908152600460205260409020546001600160a01b031690565b600061041e8261073c565b9050806001600160a01b0316836001600160a01b0316141561048c5760405162461bcd60e51b815260206004820152602160248201527f4552433732313a20617070726f76616c20746f2063757272656e74206f776e656044820152603960f91b60648201526084016103ee565b336001600160a01b03821614806104a857506104a88133610251565b61051a5760405162461bcd60e51b815260206004820152603860248201527f4552433732313a20617070726f76652063616c6c6572206973206e6f74206f7760448201527f6e6572206e6f7220617070726f76656420666f7220616c6c000000000000000060648201526084016103ee565b6105248383610a98565b505050565b6105333382610b06565b6105995760405162461bcd60e51b815260206004820152603160248201527f4552433732313a207472616e736665722063616c6c6572206973206e6f74206f6044820152701ddb995c881b9bdc88185c1c1c9bdd9959607a1b60648201526084016103ee565b610524838383610bef565b336000908152600a602052604081205460ff166105fa5760405162461bcd60e51b8152602060048201526014602482015273111959dc9959481a5cc81b9bdd081a5cdcdd595960621b60448201526064016103ee565b610608600880546001019055565b600061061360085490565b905061061f3382610d8b565b6106298184610ebe565b3360009081526009602090815260409091208451610649928601906111ee565b50336000908152600a60205260409020805460ff1916905592915050565b6009602052600090815260409020805461068090611500565b80601f01602080910402602001604051908101604052809291908181526020018280546106ac90611500565b80156106f95780601f106106ce576101008083540402835291602001916106f9565b820191906000526020600020905b8154815290600101906020018083116106dc57829003601f168201915b505050505081565b6007546001600160a01b0316331461071857600080fd5b6001600160a01b03166000908152600a60205260409020805460ff19166001179055565b6000818152600260205260408120546001600160a01b0316806102ee5760405162461bcd60e51b815260206004820152602960248201527f4552433732313a206f776e657220717565727920666f72206e6f6e657869737460448201526832b73a103a37b5b2b760b91b60648201526084016103ee565b60006001600160a01b03821661081e5760405162461bcd60e51b815260206004820152602a60248201527f4552433732313a2062616c616e636520717565727920666f7220746865207a65604482015269726f206164647265737360b01b60648201526084016103ee565b506001600160a01b031660009081526003602052604090205490565b60606001805461030390611500565b610854338383610f49565b5050565b6001600160a01b038116600090815260096020526040902080546060919061087f90611500565b80601f01602080910402602001604051908101604052809291908181526020018280546108ab90611500565b80156108f85780601f106108cd576101008083540402835291602001916108f8565b820191906000526020600020905b8154815290600101906020018083116108db57829003601f168201915b50505050509050919050565b606061090f82610a7b565b6109755760405162461bcd60e51b815260206004820152603160248201527f45524337323155524953746f726167653a2055524920717565727920666f72206044820152703737b732bc34b9ba32b73a103a37b5b2b760791b60648201526084016103ee565b6000828152600660205260408120805461098e90611500565b80601f01602080910402602001604051908101604052809291908181526020018280546109ba90611500565b8015610a075780601f106109dc57610100808354040283529160200191610a07565b820191906000526020600020905b8154815290600101906020018083116109ea57829003601f168201915b505050505090506000610a2560408051602081019091526000815290565b9050805160001415610a38575092915050565b815115610a6a578082604051602001610a5292919061153b565b60405160208183030381529060405292505050919050565b610a7384611018565b949350505050565b6000908152600260205260409020546001600160a01b0316151590565b600081815260046020526040902080546001600160a01b0319166001600160a01b0384169081179091558190610acd8261073c565b6001600160a01b03167f8c5be1e5ebec7d5bd14f71427d1e84f3dd0314c0f7b2291e5b200ac8c7c3b92560405160405180910390a45050565b6000610b1182610a7b565b610b725760405162461bcd60e51b815260206004820152602c60248201527f4552433732313a206f70657261746f7220717565727920666f72206e6f6e657860448201526b34b9ba32b73a103a37b5b2b760a11b60648201526084016103ee565b6000610b7d8361073c565b9050806001600160a01b0316846001600160a01b03161480610bc457506001600160a01b0380821660009081526005602090815260408083209388168352929052205460ff165b80610a735750836001600160a01b0316610bdd84610386565b6001600160a01b031614949350505050565b826001600160a01b0316610c028261073c565b6001600160a01b031614610c665760405162461bcd60e51b815260206004820152602560248201527f4552433732313a207472616e736665722066726f6d20696e636f72726563742060448201526437bbb732b960d91b60648201526084016103ee565b6001600160a01b038216610cc85760405162461bcd60e51b8152602060048201526024808201527f4552433732313a207472616e7366657220746f20746865207a65726f206164646044820152637265737360e01b60648201526084016103ee565b610cd3600082610a98565b6001600160a01b0383166000908152600360205260408120805460019290610cfc908490611580565b90915550506001600160a01b0382166000908152600360205260408120805460019290610d2a908490611597565b909155505060008181526002602052604080822080546001600160a01b0319166001600160a01b0386811691821790925591518493918716917fddf252ad1be2c89b69c2b068fc378daa952ba7f163c4a11628f55a4df523b3ef91a4505050565b6001600160a01b038216610de15760405162461bcd60e51b815260206004820181905260248201527f4552433732313a206d696e7420746f20746865207a65726f206164647265737360448201526064016103ee565b610dea81610a7b565b15610e375760405162461bcd60e51b815260206004820152601c60248201527f4552433732313a20746f6b656e20616c7265616479206d696e7465640000000060448201526064016103ee565b6001600160a01b0382166000908152600360205260408120805460019290610e60908490611597565b909155505060008181526002602052604080822080546001600160a01b0319166001600160a01b03861690811790915590518392907fddf252ad1be2c89b69c2b068fc378daa952ba7f163c4a11628f55a4df523b3ef908290a45050565b610ec782610a7b565b610f2a5760405162461bcd60e51b815260206004820152602e60248201527f45524337323155524953746f726167653a2055524920736574206f66206e6f6e60448201526d32bc34b9ba32b73a103a37b5b2b760911b60648201526084016103ee565b60008281526006602090815260409091208251610524928401906111ee565b816001600160a01b0316836001600160a01b03161415610fab5760405162461bcd60e51b815260206004820152601960248201527f4552433732313a20617070726f766520746f2063616c6c65720000000000000060448201526064016103ee565b6001600160a01b03838116600081815260056020908152604080832094871680845294825291829020805460ff191686151590811790915591519182527f17307eab39ab6107e8899845ad3d59bd9653f200f220920489ca2b5937696c31910160405180910390a3505050565b606061102382610a7b565b6110875760405162461bcd60e51b815260206004820152602f60248201527f4552433732314d657461646174613a2055524920717565727920666f72206e6f60448201526e3732bc34b9ba32b73a103a37b5b2b760891b60648201526084016103ee565b600061109e60408051602081019091526000815290565b905060008151116110be57604051806020016040528060008152506110e9565b806110c8846110f0565b6040516020016110d992919061153b565b6040516020818303038152906040525b9392505050565b6060816111145750506040805180820190915260018152600360fc1b602082015290565b8160005b811561113e5780611128816115af565b91506111379050600a836115e0565b9150611118565b60008167ffffffffffffffff811115611159576111596113af565b6040519080825280601f01601f191660200182016040528015611183576020820181803683370190505b5090505b8415610a7357611198600183611580565b91506111a5600a866115f4565b6111b0906030611597565b60f81b8183815181106111c5576111c5611608565b60200101906001600160f81b031916908160001a9053506111e7600a866115e0565b9450611187565b8280546111fa90611500565b90600052602060002090601f01602090048101928261121c5760008555611262565b82601f1061123557805160ff1916838001178555611262565b82800160010185558215611262579182015b82811115611262578251825591602001919060010190611247565b5061126e929150611272565b5090565b5b8082111561126e5760008155600101611273565b60006020828403121561129957600080fd5b81356001600160e01b0319811681146110e957600080fd5b60005b838110156112cc5781810151838201526020016112b4565b838111156112db576000848401525b50505050565b60208152600082518060208401526113008160408501602087016112b1565b601f01601f19169190910160400192915050565b60006020828403121561132657600080fd5b5035919050565b80356001600160a01b038116811461134457600080fd5b919050565b6000806040838503121561135c57600080fd5b6113658361132d565b946020939093013593505050565b60008060006060848603121561138857600080fd5b6113918461132d565b925061139f6020850161132d565b9150604084013590509250925092565b634e487b7160e01b600052604160045260246000fd5b6000602082840312156113d757600080fd5b813567ffffffffffffffff808211156113ef57600080fd5b818401915084601f83011261140357600080fd5b813581811115611415576114156113af565b604051601f8201601f19908116603f0116810190838211818310171561143d5761143d6113af565b8160405282815287602084870101111561145657600080fd5b826020860160208301376000928101602001929092525095945050505050565b60006020828403121561148857600080fd5b6110e98261132d565b600080604083850312156114a457600080fd5b6114ad8361132d565b9150602083013580151581146114c257600080fd5b809150509250929050565b600080604083850312156114e057600080fd5b6114e98361132d565b91506114f76020840161132d565b90509250929050565b600181811c9082168061151457607f821691505b6020821081141561153557634e487b7160e01b600052602260045260246000fd5b50919050565b6000835161154d8184602088016112b1565b8351908301906115618183602088016112b1565b01949350505050565b634e487b7160e01b600052601160045260246000fd5b6000828210156115925761159261156a565b500390565b600082198211156115aa576115aa61156a565b500190565b60006000198214156115c3576115c361156a565b5060010190565b634e487b7160e01b600052601260045260246000fd5b6000826115ef576115ef6115ca565b500490565b600082611603576116036115ca565b500690565b634e487b7160e01b600052603260045260246000fdfea264697066735822122022424e73ac7afdccd47f7fd4301700bf4c00588e4ff8253367b8640d4b64f74564736f6c63430008090033",
    "linkReferences": {},
    "deployedLinkReferences": {}
}